:020000040800F2
:100000006824002001010008BD0A00081309000847
:1000100017090008510600087511000800000000CB
:10002000000000000000000000000000450F000874
:1000300055060008000000004F0E0008FD100008E3
:100040001B0100081B0100081B0100081B01000820
:100050001B0100081B0100081B0100081B01000810
:100060001B0100081B0100081B0100081B01000800
:100070001B0100081B0100081B0100081B010008F0
:100080001B0100081B0100081B0100081B010008E0
:100090001B0100081B0100081B0100081B010008D0
:1000A0001B0100081B0100081B0100081B010008C0
:1000B0001B0100081B0100081B0100081B010008B0
:1000C0001B0100081B0100081B0100081B010008A0
:1000D0001B0100081B0100081B0100081B01000890
:1000E0001B0100081B0100081B010008DFF80CD0F1
:1000F00000F00CFA00480047A11200086824002014
:100100000648804706480047FEE7FEE7FEE7FEE7B1
:10011000FEE7FEE7FEE7FEE7FEE7FEE71511000853
:10012000ED000008D2B201E000F8012B491EFBD21D
:1001300070470022F6E710B513460A4604461946F2
:10014000FFF7F0FF204610BD2DE9FE4F804681EA03
:100150000300C00F0C46009021F0004123F0004541
:10016000B8EB0200A94105D24046214690461C4604
:100170000B46024623F00040104347D0270DC7F33B
:100180000A00C3F30A510290401A019040286BDA2A
:10019000C3F3130040F4801B0098924620B1002363
:1001A000D2EB030A63EB0B0B01985946C0F14002F6
:1001B000504600F005F906460D4650465946019A4C
:1001C00000F01DF910EB08006141002487EA11528C
:1001D00084EAE7731A4340D0009A62B3019A012A75
:1001E0004FEA075215DC001B61EB02014FF00042A1
:1001F00002EA0752CDE90042001C41F58011324667
:100200002B4600F01DF903B0BDE8F08F40462146B3
:10021000F9E7001B61EB0201001C41F58013001897
:100220005B412018A2F5001747EB030140EAD570A7
:10023000B6196D4111E06D084FEA360645EAC07502
:100240004FEA0752001B61EB0201001C41F58011CF
:1002500049084FEA30000019514132462B4603B09D
:10026000BDE8F04F00F0DDB8009801224000002307
:10027000D0EB020263EBE073009821464FEAE07492
:10028000B8EB000061EB0401E9E783F000435BE7B2
:1002900081F0004158E72DE9F04D81EA030404F0B4
:1002A000004B21F0004514464FF0000A23F00041B6
:1002B00050EA050220D054EA01021DD0C5F30A57C6
:1002C0000246C5F31303C1F31300C1F30A5640F409
:1002D000801543F48013A7EB0608101BD64608F2DE
:1002E000FD3873EB050002D308F1010801E0921814
:1002F0005B41B8F1000F03DA00200146BDE8F08D44
:1003000000204FF48011064684460EE0171B73EB65
:10031000050705D3121B63EB050306434CEA010CEA
:1003200049084FEA300092185B4150EA0107EDD1CD
:1003300052EA030012D082EA040083EA050108436E
:1003400005D0101BAB4106D20122002306E000229B
:100350004FF0004302E06FF0010253101AEB060069
:100360004CEB085110EB0A0041EB0B01BDE8F04DDE
:1003700000F057B80EB540F2334102910021CDE9AB
:1003800000110A460B4600F05BF803B000BDC1F354
:100390000A5210B5C1F3130140F2FF3341F480114A
:1003A0009A4201DA002010BD40F233439A42A2F291
:1003B000334203DC524200F012F810BD904010BDF1
:1003C000202A04DB203A00FA02F100207047914015
:1003D000C2F1200320FA03F3194390407047202A0A
:1003E00004DB203A21FA02F00021704721FA02F3DF
:1003F000D040C2F120029140084319467047202A9C
:1004000006DBCB17203A41FA02F043EAE07306E03C
:1004100041FA02F3D040C2F120029140084319464C
:10042000704710B5141E73F1000408DA401C41F146
:10043000000192185B411A4301D120F0010010BD68
:100440002DE9F04D92469B4611B1B1FA81F202E0DE
:10045000B0FA80F220329046FFF7B2FF04460F4612
:1004600040EA0A0041EA0B0153465A46084313D0BA
:10047000114653EA010019D0C8F140025046FFF777
:10048000AEFF05460E46504659464246FFF798FFD6
:10049000084305D0012004E020463946BDE8F08D30
:1004A0000020054346EAE0762C4337430A9863056B
:1004B000E40AA0EB08000022FD0A44EA47540A308F
:1004C00002D500200146E9E7010510196941DDE97F
:1004D000084500196941BDE8F04DA2E730B5041E9A
:1004E00071F1000404DB4FF00044404264EB010171
:1004F000141E73F1000405DB1C464FF0004352420A
:1005000063EB0403994208BF904230BD064C074D8F
:1005100006E0E06840F0010394E8070098471034D3
:10052000AC42F6D3FFF7E6FDD4300008F430000803
:1005300070B58C1810F8015B15F0070301D110F8A5
:10054000013B2A1106D110F8012B03E010F8016BD2
:1005500001F8016B5B1EF9D12B0705D40023521E55
:100560000DD401F8013BFAE710F8013BCB1A921CBD
:1005700003E013F8015B01F8015B521EF9D5A142BB
:10058000D8D3002070BDF0B5837B03B9F0BD00293E
:1005900001DB802900DBF9E7002A01DB402A00DBD0
:1005A000F4E7438BBBB1838BABB1B0F916308B4210
:1005B00005DCB0F91630448B23448B4200DCE5E7C0
:1005C000B0F91830934205DCB0F91830848B23441D
:1005D000934200DCDAE7837B012B1CD1D51702EBB9
:1005E0005575ED1001EBC5154668755D1446D617B7
:1005F00002EB5676F610A2EBC6070126BE40354345
:10060000EEB21346D51702EB5575ED1001EBC5158B
:1006100047687E551AE0D51702EB5575ED1001EBD2
:10062000C5154668755D1446D61702EB5676F6106A
:10063000A2EBC6070126BE40B5431346D61702EB10
:100640005676F61001EBC6164768BD5500BF9DE70C
:1006500000BFFEE77047000070B5044600F010F8D8
:10066000064802684068151940F1000600BF0348BB
:1006700001684068491BB041F9D370BD18040020DF
:1006800010B586B025480078002844D101202349C0
:100690000870142101A8FFF74CFD4FF0E02000691D
:1006A00020F001004FF0E021086100211C4A116098
:1006B000516001A800F0DCFB4FF0E020006940F041
:1006C00002004FF0E021086100211648C1774FF485
:1006D0007A710298B0FBF1F4B4F1807F09D3E40899
:1006E0004FF0E020006920F004004FF0E0210861A5
:1006F00007E04FF0E020006940F004004FF0E021F7
:100700000861601E4FF0E02148610846006940F032
:100710000100086100BF06B010BD000020040020E9
:100720001804002000ED00E02DE9F04F87B00546E9
:100730000F4690469946A87B20B9287B10B907B090
:10074000BDE8F08F95F80DA0012068734846FFF7CB
:1007500011FE0022214BCDE90001FFF79CFDCDE900
:10076000020100F019FDCDE90401FFF710FE1FFAA8
:1007700080FB00242CE0002625E0E21704EB5272F7
:10078000D21006FB0B23119AD25CE31704EB5373D0
:10079000DB10A4EBC30C802343FA0CF31A4042B1E4
:1007A00008EB060002B2381901B2284600F0FFFA41
:1007B00007E008EB060002B2381901B22846FFF73D
:1007C000E2FE701C06B210988642D6DB601C04B2B2
:1007D0004C45D0DB85F80DA000BFB0E700002040FD
:1007E0002DE9F041024600250026002000230024C8
:1007F000002791F803C00CF00F0591F803C00CF02E
:10080000100CBCF1000F03D091F802C04CEA0505B2
:1008100091F800C0BCF1000F31D0146800202BE02B
:100820004FF0010C0CFA00F3B1F800C00CEA03061B
:100830009E4220D183004FF00F0C0CFA03F7BC430B
:1008400005FA03FC4CEA040491F803C0BCF1280F3C
:1008500006D14FF0010C0CFA00FCC2F814C00AE0FB
:1008600091F803C0BCF1480F05D14FF0010C0CFA10
:1008700000FCC2F810C0401C0828D1D31460B1F8A5
:1008800000C0BCF1FF0F34DD546800202EE000F101
:10089000080C4FF0010808FA0CF3B1F800C00CEA9C
:1008A00003069E4221D183004FF00F0C0CFA03F790
:1008B000BC4305FA03FC4CEA040491F803C0BCF104
:1008C000280F05D100F1080C08FA0CF8C2F81480C2
:1008D00091F803C0BCF1480F07D100F1080C4FF0AC
:1008E000010808FA0CF8C2F81080401C0828CED382
:1008F0005460BDE8F0810246002093680B400BB1C4
:10090000012000E0002070470AB1016100E0416170
:10091000704700BFFEE700BFFEE7000008B50348D0
:1009200000906946024800F0E5F808BD851200080D
:100930003C04002038B5044635492068884204D17B
:100940000121042000F084FA19E03249206888422D
:1009500004D10121082000F07BFA10E02E49206824
:10096000884204D10121102000F072FA07E02B49DF
:100970002068884203D10121202000F069FAA18972
:100980000122A068FFF7C0FFA18801222068FFF7BD
:10099000BBFF1F49A068884204D10121042000F058
:1009A00057FA19E01B49A068884204D101210820A8
:1009B00000F04EFA10E01849A068884204D10121E5
:1009C000102000F045FA07E01449A068884203D1DE
:1009D0000121202000F03CFAA088ADF8000014208E
:1009E0008DF8030002208DF8020069462068FFF7A9
:1009F000F7FEA089ADF8000014208DF80300022056
:100A00008DF802006946A068FFF7EAFE38BD0000D5
:100A100000080140000C014000100140001401409A
:100A20002DE9F04104460E4617469846A189012259
:100A3000A068FFF769FFA18801222068FFF764FF23
:100A4000A1890022A068FFF75FFF012000F012FCDF
:100A500006F0FE01204600F076FA30B1204600F0A4
:100A6000B5FA4FF0FF30BDE8F08100250CE0795D6C
:100A7000204600F068FA28B1204600F0A7FA6FF08F
:100A80000100F0E7681C85B24545F0DB204600F028
:100A90009DFA0020E7E7000010B506480649086007
:100AA0004020888003488860802088810846FFF7BE
:100AB00041FF10BD000C01402C040020704710B510
:100AC00004464FF480616068FFF733FB10BD2DE9E9
:100AD000FC4104460D4616461F46CDE90067B4F9B1
:100AE0001220B4F910102B462046FFF71DFEBDE87A
:100AF000FC81000038B504460D462868206040F2AD
:100B0000014000F003FC6060606810B96FF0010004
:100B100038BD6068401C60604FF480616068FFF71A
:100B200008FB00231A46AE21204600F004F910B15C
:100B30004FF0FF30ECE78020009001236A46D5217A
:100B4000204600F0F8F810B14FF0FF30E0E73F200A
:100B5000009001236A46A821204600F0ECF810B16D
:100B60004FF0FF30D4E70020009001236A46D321E4
:100B7000204600F0E0F810B14FF0FF30C8E7002346
:100B80001A464021204600F0D6F810B14FF0FF3051
:100B9000BEE71420009001236A468D21204600F014
:100BA000CAF810B14FF0FF30B2E7002000900123E7
:100BB0006A462021204600F0BEF810B14FF0FF3009
:100BC000A6E700231A46A121204600F0B4F810B190
:100BD0004FF0FF309CE700231A46C821204600F062
:100BE000AAF810B14FF0FF3092E7122000900123D5
:100BF0006A46DA21204600F09EF810B14FF0FF302F
:100C000086E7CF20009001236A468121204600F02C
:100C100092F810B14FF0FF307AE7F12000900123F5
:100C20006A46D921204600F086F810B14FF0FF3017
:100C30006EE72020009001236A46DB21204600F069
:100C40007AF810B14FF0FF3062E700231A462E21E8
:100C5000204600F070F810B14FF0FF3058E7002345
:100C60001A46A421204600F066F810B14FF0FF307C
:100C70004EE700231A46A621204600F05CF810B18A
:100C80004FF0FF3044E700231A46AF21204600F022
:100C900052F810B14FF0FF303AE701206073207333
:100CA0000020A07320826082A082E0832084608480
:100CB000A0840248A06000202AE70000402D000820
:100CC00038B5044600208DF8000001236A46202133
:100CD000204600F030F810B14FF0FF3038BD002052
:100CE0008DF800007F208DF8010002236A46212143
:100CF000204600F020F810B14FF0FF30EEE7002062
:100D00008DF8000007208DF8010002236A46222199
:100D1000204600F010F810B14FF0FF30DEE74FF43E
:100D200080622046616800F027F810B14FF0FF3074
:100D3000D4E70020D2E72DE9FC4105460E461746D0
:100D4000984600208DF800008DF80160002405E031
:100D5000395DA01C0DF80010601CC4B24445F7DBDF
:100D6000A21C694678202B68984718B14FF0FF30D5
:100D7000BDE8FC810020FBE72DE9F04105460C466B
:100D80001646002714F8018C402004F8010C701C52
:100D900082B2611E78202B68984700B17F1E04F84C
:100DA000018C3846BDE8F0810182428270472DE90E
:100DB000FC5F04468A469346207B08B9BDE8FC9F49
:100DC000607B00B9FAE7607B00EBD0714910A0EBC3
:100DD000410139B1607B00EBD0714D102E462F469A
:100DE000A8460CE0607B00EBD0714D102E462F46DC
:100DF000A846A8F101001FFA80F8781E87B2A07BF0
:100E00000190207BA073AAEB08000FFA80F916E08E
:100E1000ABEB070000B2009008E049462046009A7C
:100E2000FFF7B1FB0098401C00B200900BEB0601ED
:100E300000988142F1DA09F101000FFA80F90AEB1A
:100E400005004845E4DA0198A07300BFB6E7704793
:100E500029B1064A92690243044B9A6104E0034AAD
:100E600092698243014B9A61704700000010024072
:100E700030B500210022002400232D4D6D6805F0BF
:100E80000C0121B1042905D0082923D105E0294D01
:100E9000056022E0274D05601FE0254D6D6805F4D3
:100EA0007012234D6D6805F48034022505EB9242E3
:100EB0001CB9214D554305600BE01D4D6D6805F4CF
:100EC00000351DB11C4D5543056002E0194D5543D9
:100ED000056002E0174D056000BF00BF144D6D684E
:100EE00005F0F0010909154D6B5C0568DD404560B2
:100EF0000F4D6D6805F4E061090A104D6B5C4568A3
:100F0000DD4085600A4D6D6805F46051C90A0B4DDE
:100F10006B5C4568DD40C560054D6D6805F440417A
:100F2000890B074D6B5CC568B5FBF3F5056130BDFA
:100F30000010024000127A0000093D000004002069
:100F400010040020704770B504460E4607251DE0CA
:100F5000A18800222068FFF7D7FC0123AB40334073
:100F60000BB1012300E000231A46A189A068FFF716
:100F7000CBFC022000F07EF9A18801222068FFF757
:100F8000C3FC022000F076F9681E45B2002DDFDABE
:100F9000A18800222068FFF7B7FCA1890122A06880
:100FA000FFF7B2FC022000F065F9A1880122206859
:100FB000FFF7AAFC022000F05DF9A189A068FFF705
:100FC0009AFC012800D170BD0020FCE710B5044652
:100FD000A18800222068FFF797FC012000F04AF961
:100FE000A1890022A068FFF78FFC012000F042F9E0
:100FF000A18801222068FFF787FC012000F03AF960
:10100000A1890122A068FFF77FFC012000F032F9DE
:1010100010BD10B500F002F810BD00000CB50020A6
:10102000019000903348006840F4803031490860F6
:1010300000BF3048006800F4003000900198401C68
:101040000190009818B90198B0F5A06FF1D1294826
:10105000006800F4003010B10120009001E0002091
:1010600000900098012843D12348006840F0100008
:10107000214908600846006820F00700086008461B
:10108000006840F0020008601A484068194948604A
:101090000846406848600846406840F48060486000
:1010A0000846406820F47C1048600846406840F4D8
:1010B000E81048600846006840F08070086000BF93
:1010C0000C48006800F000700028F9D0094840681A
:1010D00020F00300074948600846406840F00200DD
:1010E000486000BF0348406800F00C000828F9D1B0
:1010F0000CBD0000001002400020024004480368BC
:1011000040685A1C40F1000001490A60486070477D
:101110001804002010B51348006840F00100114980
:10112000086008464068104908400E494860084673
:1011300000680E4908400B4908600846006820F422
:10114000802008600846406820F4FE0048604FF4A4
:101150001F008860FFF75DFF4FF0006004490860E2
:1011600010BD0000001002400000FFF8FFFFF6FE77
:1011700008ED00E000BFFEE702E008C8121F08C14A
:10118000002AFAD170477047002001E001C1121F08
:10119000002AFBD1704700002DE9F041C1F30A524B
:1011A000A2F2FF362F4A304B0D460446142E2FDA9A
:1011B000002E12DAFEF7C8FF00221346FFF78EF961
:1011C0004CD2002DBCBF4FF00045002446DB55EA51
:1011D000040018BF254D19D140E0DFF894C02CFA67
:1011E00006F705EA070C5CEA040C08BFBDE8F081CD
:1011F000FEF7AAFF00221346FFF770F92ED2002D4A
:1012000003DD4FF48010F0400544BD43002425E089
:10121000332EC8BFBDE8F081A6F1140C4FF0FF37A4
:1012200027FA0CF73C4208BFBDE8F081FFF730F821
:1012300000221346FFF752F910D2002D0DDD142EB7
:1012400008BF6D1C09D0C6F13400012101FA00F07D
:101250002044A04238BF6D1C0446BC4329462046AA
:10126000BDE8F0819C7500883CE4377E0000F03FCB
:10127000FFFF0F00002100E0491CC2008A42FBD89A
:101280007047000070B504460D46164633462A46A0
:1012900021460248FFF7C4FB70BD00002C0400206B
:1012A000FFF7FAFBFFF73AFB29E01548FFF707FCC9
:1012B000002211461248FFF777FD124B4022802191
:1012C0000F48FFF704FC0E48FFF7FAFC4FF4FA70E2
:1012D000FFF7C2F90A48FFF7F2FB0022114608485F
:1012E000FFF762FD084B402280210548FFF7EFFB26
:1012F0000348FFF7E5FC4FF4FA70FFF7ADF9D4E7C8
:101300003C0400200000002034150008F0B50B302C
:10131000154D20F007010024144A0FE003688B42AA
:101320000BD38B4205D95E1A43184768C3E900679F
:1013300000E04368136002C004E0021D106800284A
:10134000ECD12046002802D1286808B10020F0BD69
:10135000064A07481060074A121A22F00702C0E93D
:10136000002401202860D7E728040020240400205E
:101370006C0400206814002000060000C60018C697
:101380000018C40018C40018C44018FFC01FFC0097
:10139000FCCC0018CC0018CC0018FC0018C00018B9
:1013A00040001800001801803FFF80061800071851
:1013B000000E30000C30401C7FE01840C030C08070
:1013C000788D00D90C00184C00184D8018CCC0192D
:1013D0008CE0198C60188C00184C00183C00081820
:1013E000000C00800C03C00C7DC00C0380190300AE
:1013F000198E001F8600FB06005307E033FE00260F
:1014000006001E06000F86001F8600188600307E2C
:1014100000401C00800C00000E001FFE0018CE00D3
:101420001BEC0008CC000FFC0009C00003F0000614
:101430001C000C0F001E37C06633E08630000630FB
:10144000000C30000C30001830003030000000007C
:10145000164E0000604F00007D5900004C750000E2
:10146000B82D0008164E0000DE0300001600000034
:101470000000000000000000000000001200110049
:101480000200FFFF3300000078130008642D0008FD
:10149000604F0000DE0300001600000000000000A6
:1014A0000000000000000000130012000100FDFF1A
:1014B00036000000AB130008C82D00087D5900005D
:1014C000B103000015000000000000000000000053
:1014D00000000000130012000100FDFF36000000B4
:1014E000E1130008C02D00084C750000DE03000069
:1014F00016000000000000000000000000000000D6
:10150000130012000200FCFF360000001714000850
:10151000B42D00086C2D00080000000010006400CD
:10152000640018001D00FFFFF8FF060050140008BB
:1015300060140008FFFFFFFFFFFFFFFFFFFFFFFF3B
:10154000FFFFFFFFFFFFFFFFFFFFFFFFFFFFFFFFAB
:10155000FFFFFFFFFFFFFFFFFFFFFFFFFFFFFFFF9B
:10156000FFFFFFFFFFFFFFFFFFFFFFFFFFFFFFFF8B
:10157000FFFFFFFFFFFFFFFFFFFFFFFFFFFFFFFF7B
:10158000FFFFFFFFFFFFFFFFFFFFFFFFFFFFFFFF6B
:10159000FFFFFFFFFFFFFFFFFFFFFFFFFFFFFFFF5B
:1015A000FFFFFFFFFFFFFFFFFFF38EC09FCCE7FFB2
:1015B000FFFFFFFFFFFFFFFFFFE100CF81CC07FF31
:1015C000FFFFFFFFFFFFFFFFFFE100CF3980E7FFD5
:1015D000FFFFFFFFFFFFFFFFFFF200C04309E7FF30
:1015E000FFFFFFFFFFFFFFFFFFE181C9CFC807FF3C
:1015F000FFFFFFFFFFFFFFFFFFC039C9CFCC07FF91
:10160000FFFFFFFFFFFFFFFFFFF001D987CE4FFF76
:10161000FFFFFFFFFFFFFFFFFFF3399913CCCBFF65
:10162000FFFFFFFFFFFFFFFFFFF3019839C9C3FF73
:10163000FFFFFFFFFFFFFFFFFFFFFFFFFFFFFFFFBA
:10164000FFFFFFFFFFFFFFFFFFFFFFFFFFFFFFFFAA
:10165000FFFFFFFFFFFFFFFFFFFFFFFFFFFFFFFF9A
:10166000FFFFFFFFFFFFFFFFFFFFFFFFFFFFFFFF8A
:10167000FFFFFFFFFFFFFFFFFFFFFFFFFFFFFFFF7A
:10168000FFFFFFFFFFFFFFFFFFFFFFFFFFFFFFFF6A
:10169000FFFFFFFFFFFFFFFFFFFFFFFFFFFFFFFF5A
:1016A000FFFFFFFFFFFFFFFFFFFFFFFFFFFFFFFF4A
:1016B000FFFFFFFFFFFFFFFFFFFFFFFFFFFFFFFF3A
:1016C000FFFFFFFFFFFFFFFFFFFFFFFFFFFFFFFF2A
:1016D000FFFFFFFFFFFFFFFFFFFFFFFFFFFFFFFF1A
:1016E000FFFFFFFFFFFFFFFFFFFFFFFFFFFFFFFF0A
:1016F000FFFFFFFFFFFFFFFFFFFFFFF83FFFFFFFC1
:10170000FFFFFFFFFFFFFFFFFFFFFFF33FFFFFFFB5
:10171000FFFFFFFFFFFFFFFFFFFFFFF133FFFFFFB3
:10172000FFFFFFFFFFFFFFFFFFFFFFF873FFFFFF5C
:10173000FFFFFFFFFFFFFFFFFFFFFFE303FFFFFFD1
:10174000FFFFFFFFFFFFFFFFFFFFFFE787FFFFFF39
:10175000FFFFFFFFFFFFFFFFFFFFFFE307FFFFFFAD
:10176000FFFFFFFFFFFFFFFFFFFFFFF071FFFFFF26
:10177000FFFFFFFFFFFFFFFFFFFFFFFFFFFFFFFF79
:10178000FFFFFFFFFFFFFFFFFFFFFFFFFFFFFFFF69
:10179000FFFFFFFFFFFFFFFFFFFFFFFFFFFFFFFF59
:1017A000FFFFFFFFFFFFFFFFFFFFFFFFFFFFFFFF49
:1017B000FFFFFFFFFFFFFFFFFFFFFFFFFFFFFFFF39
:1017C000FFFFFFFFFFFFFFFFFFFFFFFFFFFFFFFF29
:1017D000FFFFFFFFFFFFFFFFFFFFFFFFFFFFFFFF19
:1017E000FFFFFFFFFFFFFFFFFFFFFFFFFFFFFFFF09
:1017F000FFFFFFFFFFFFFFFFFFFFFFFFFFFFFFFFF9
:10180000FFFFFFFFFFFFFFFFFFFFFFFFFFFFFFFFE8
:10181000FFFFFFFFFFFFFFFFFFFFFFFFFFFFFFFFD8
:10182000FFFFFFFFFFFFFFFFFFFBFF7FFFFFFFFF4C
:10183000FFFFFFFFFFFFFFFFF073E200CA01FFFFA2
:10184000FFFFFFFFFFFFFFFFFE73FCFFC199FFFFDC
:10185000FFFFFFFFFFFFFFFFFCC26C01E681FFFF00
:10186000FFFFFFFFFFFFFFFFFCD26649C011FFFF34
:10187000FFFFFFFFFFFFFFFFF0127C00E699FFFF75
:10188000FFFFFFFFFFFFFFFFF0933459C001FFFF91
:10189000FFFFFFFFFFFFFFFFFCB33649E689FFFFB5
:1018A000FFFFFFFFFFFFFFFFFCF3E600C799FFFF0D
:1018B000FFFFFFFFFFFFFFFFF1C3E7E1CE01FFFFE7
:1018C000FFFFFFFFFFFFFFFFFFFFFFFFFFFFFFFF28
:1018D000FFFFFFFFFFFFFFFFFFFFFFFFFFFFFFFF18
:1018E000FFFFFFFFFFFFFFFFFFFFFFFFFFFFFFFF08
:1018F000FFFFFFFFFFFFFFFFFFFFFFFFFFFFFFFFF8
:10190000FFFFFFFFFFFFFFFFFFFFFFFFFFFFFFFFE7
:10191000FFFFFFFFFFFFFFFFFFFFFFFFFFFFFFFFD7
:10192000FFFFFFFFFFFFFFFFFFFFFFFFFFFFFFFFC7
:10193000FFFFFFFF0080808080800080A0A0A0507B
:1019400050F850F850502078A05008D0C0C810204F
:10195000409818E090A040A89068C0408020408047
:1019600080804020804020202040805020F820505F
:101970002020F82020C04080F8C0C00810204080FF
:10198000708898A8C8887040C040404040E0708887
:1019900008102040F8F8102010088870103050907F
:1019A000F81010F880F008088870304080F08888BF
:1019B00070F80810204040407088887088887070E7
:1019C000888878081060C0C000C0C0C0C000C04097
:1019D0008010204080402010F800F8804020102027
:1019E00040807088081020002070880868A8A870BF
:1019F00070888888F88888F08888F08888F07088EF
:101A00008080808870E09088888890E0F88080F0FE
:101A10008080F8F88080E08080807088808098885E
:101A200070888888F8888888C04040404040C0302E
:101A30001010101090608890A0C0A09088808080C6
:101A4000808080F888D8A8888888888888C8A898DE
:101A5000888870888888888870F08888F08080807E
:101A600070888888A89068F08888F0A0908878802E
:101A700080700808F0F8202020202020888888889E
:101A800088887088888888885020888888A8A8D8FE
:101A9000888888502050888888885020202020F806
:101AA0000810204080F8E08080808080E080402026
:101AB0001008E02020202020E0205088F8804020DE
:101AC00070087888788080B0C88888F070808088B6
:101AD00070080868988888787088F8807030484066
:101AE000E040404078887808308080B0C888888896
:101AF0004000C0404040E0100030101090608080F6
:101B000090A0C0A090C04040404040E0D0A8A8882D
:101B100088B0C88888887088888870F088F080804D
:101B2000689878080808B0C8808080708070087055
:101B30004040E04040483088888888986888888895
:101B400050208888A8A85088502050888888780815
:101B500070F8102040F82040408040402080808075
:101B6000808080808040402040408040A81000005D
:101B700020000000210000002200000023000000DF
:101B800024000000250000002600000027000000BF
:101B900028000000290000002A0000002B0000009F
:101BA0002C0000002D0000002E0000002F0000007F
:101BB000300000003100000032000000330000005F
:101BC000340000003500000036000000370000003F
:101BD00038000000390000003A0000003B0000001F
:101BE0003C0000003D0000003E0000003F000000FF
:101BF00040000000410000004200000043000000DF
:101C000044000000450000004600000047000000BE
:101C100048000000490000004A0000004B0000009E
:101C20004C0000004D0000004E0000004F0000007E
:101C3000500000005100000052000000530000005E
:101C4000540000005500000056000000570000003E
:101C500058000000590000005A0000005B0000001E
:101C60005C0000005D0000005E0000005F000000FE
:101C700060000000610000006200000063000000DE
:101C800064000000650000006600000067000000BE
:101C900068000000690000006A0000006B0000009E
:101CA0006C0000006D0000006E0000006F0000007E
:101CB000700000007100000072000000730000005E
:101CC000740000007500000076000000770000003E
:101CD00078000000790000007A0000007B0000001E
:101CE0007C0000007D0000007E000000D02D000878
:101CF00020000000E80300000700000000000000D2
:101D000000000000000000000000000000000000D3
:101D10000000000034190008002E00082100000017
:101D2000E8030000070000000000000000000000C1
:101D30000000000001000700030001000700000090
:101D400035190008302E000822000000E8030000CA
:101D5000070000000000000000000000000000007C
:101D60000300030002000400030000003C19000807
:101D7000602E000823000000E803000007000000B8
:101D80000000000000000000000000000500070047
:101D900001000100070000003F190008902E000814
:101DA00024000000E803000007000000000000001D
:101DB0000000000000000000050006000100020015
:101DC0000600000046190008C02E0008250000008B
:101DD000E803000007000000000000000000000011
:101DE00000000000050007000100010007000000DE
:101DF0004C190008F02E000826000000E80300003F
:101E000007000000000000000000000000000000CB
:101E10000500070001000100070000005319000839
:101E2000202F000827000000E80300000700000042
:101E3000000000000000000000000000020003009D
:101E400002000500030000005A190008502F000886
:101E500028000000E8030000070000000000000068
:101E60000000000000000000030007000200010065
:101E7000070000005D1900088C2F000829000000F1
:101E8000E803000007000000000000000000000060
:101E9000000000000300070002000100070000002E
:101EA00064190008BC2F00082A000000E8030000A5
:101EB000070000000000000000000000000000001B
:101EC0000500050001000200050000006B19000874
:101ED000EC2F00082B000000E803000007000000C2
:101EE00000000000000000000000000005000500E8
:101EF0000100020005000000701900081C300008F5
:101F00002C000000E80300000700000000000000B3
:101F100000000000000000000200030002000100B9
:101F200003000000751900084C3000082D00000067
:101F3000E8030000070000000000000000000000AF
:101F40000000000005000100010004000100000085
:101F5000781900087C3000082E000000E80300001B
:101F6000070000000000000000000000000000006A
:101F700002000200020001000200000079190008BE
:101F8000AC3000082F000000E8030000070000004C
:101F90000000000000000000000000000500050037
:101FA00001000200050000007B190008D82D000880
:101FB00030000000E80300000700000000000000FF
:101FC0000000000000000000050007000100010003
:101FD0000700000080190008082E000831000000EA
:101FE000E8030000070000000000000000000000FF
:101FF00000000000030007000200010007000000CD
:1020000087190008382E000832000000E80300009D
:1020100007000000000000000000000000000000B9
:102020000500070001000100070000008E190008EC
:10203000682E000833000000E803000007000000DD
:102040000000000000000000000000000500070084
:10205000010001000700000095190008982E0008F3
:1020600034000000E803000007000000000000004A
:102070000000000000000000050007000100010052
:10208000070000009C190008C82E00083500000059
:10209000E80300000700000000000000000000004E
:1020A000000000000500070001000100070000001B
:1020B000A3190008F82E000836000000E80300000D
:1020C0000700000000000000000000000000000009
:1020D000050007000100010007000000AA19000820
:1020E000282F000837000000E80300000700000068
:1020F00000000000000000000000000005000700D4
:102100000100010007000000B1190008582F000865
:1021100038000000E8030000070000000000000095
:1021200000000000000000000500070001000100A1
:1021300007000000B8190008942F000839000000BB
:10214000E80300000700000000000000000000009D
:10215000000000000500070001000100070000006A
:10216000BF190008C42F00083A000000E80300006F
:102170000700000000000000000000000000000058
:10218000020005000200020005000000C619000858
:10219000F42F00083B000000E803000007000000E7
:1021A0000000000000000000000000000200060027
:1021B0000200010006000000CB19000824300008CE
:1021C0003C000000E80300000700000000000000E1
:1021D00000000000000000000400070002000100F1
:1021E00007000000D1190008543000083D0000002D
:1021F000E8030000070000000000000000000000ED
:1022000000000000050003000100030003000000BF
:10221000D8190008843000083E000000E8030000E0
:1022200007000000000000000000000000000000A7
:10223000040007000100010007000000DB1900088E
:10224000B43000083F000000E80300000700000071
:102250000000000000000000000000000500070072
:102260000100010007000000E2190008E02D00084D
:1022700040000000E803000007000000000000002C
:102280000000000000000000050007000100010040
:1022900007000000E9190008102E000841000000A6
:1022A000E80300000700000000000000000000003C
:1022B0000000000005000700010001000700000009
:1022C000F0190008402E000842000000E80300005A
:1022D00007000000000000000000000000000000F7
:1022E000050007000100010007000000F7190008C1
:1022F000702E000843000000E80300000700000003
:1023000000000000000000000000000005000700C1
:102310000100010007000000FE190008A02E0008BF
:1023200044000000E8030000070000000000000077
:10233000000000000000000005000700010001008F
:1023400007000000051A0008D02E00084500000014
:10235000E80300000700000000000000000000008B
:102360000000000005000700010001000700000058
:102370000C1A0008002F000846000000E8030000C7
:102380000700000000000000000000000000000046
:10239000050007000100010007000000131A0008F3
:1023A000302F000847000000E8030000070000008D
:1023B0000000000000000000000000000500070011
:1023C00001000100070000001A1A0008602F000831
:1023D00048000000E80300000700000000000000C3
:1023E00000000000000000000500070001000100DF
:1023F00007000000211A00089C2F00084900000077
:10240000E8030000070000000000000000000000DA
:1024100000000000030007000200010007000000A8
:10242000281A0008CC2F00084A000000E80300002A
:102430000700000000000000000000000000000095
:102440000500070001000100070000002F1A000826
:10245000FC2F00084B000000E8030000070000000C
:102460000000000000000000000000000500070060
:102470000100010007000000361A00082C30000897
:102480004C000000E803000007000000000000000E
:10249000000000000000000005000700010001002E
:1024A000070000003D1A00085C3000084D000000E5
:1024B000E80300000700000000000000000000002A
:1024C00000000000050007000100010007000000F7
:1024D000441A00088C3000084E000000E803000099
:1024E00007000000000000000000000000000000E5
:1024F0000500070001000100070000004B1A00085A
:10250000BC3000084F000000E80300000700000096
:1025100000000000000000000000000005000700AF
:102520000100010007000000521A0008E82D000811
:1025300050000000E8030000070000000000000059
:10254000000000000000000005000700010001007D
:1025500007000000591A0008182E0008510000005A
:10256000E803000007000000000000000000000079
:102570000000000005000700010001000700000046
:10258000601A0008482E000852000000E80300000E
:102590000700000000000000000000000000000034
:1025A000050007000100010007000000671A00088D
:1025B000782E000853000000E80300000700000028
:1025C00000000000000000000000000005000700FF
:1025D00001000100070000006E1A0008A82E000884
:1025E00054000000E80300000700000000000000A5
:1025F00000000000000000000500070001000100CD
:1026000007000000751A0008D82E000855000000C9
:10261000E8030000070000000000000000000000C8
:102620000000000005000700010001000700000095
:102630007C1A0008082F000856000000E80300007C
:102640000700000000000000000000000000000083
:10265000050007000100010007000000831A0008C0
:10266000382F000857000000E803000007000000B2
:10267000000000000000000000000000050007004E
:1026800001000100070000008A1A0008682F0008F6
:1026900058000000E80300000700000000000000F0
:1026A000000000000000000005000700010001001C
:1026B00007000000911A0008A42F0008590000002C
:1026C000E803000007000000000000000000000018
:1026D00000000000050007000100010007000000E5
:1026E000981A0008D42F00085A000000E8030000E0
:1026F00007000000000000000000000000000000D3
:102700000500070001000100070000009F1A0008F3
:10271000043000085B000000E80300000700000030
:10272000000000000000000000000000030007009F
:102730000200010007000000A61A0008343000085B
:102740005C000000E803000007000000000000003B
:10275000000000000000000005000500010002006C
:1027600005000000AD1A0008643000085D0000009C
:10277000E803000007000000000000000000000067
:102780000000000003000700020001000700000035
:10279000B21A0008943000085E000000E803000050
:1027A0000700000000000000000000000000000022
:1027B000050003000100050003000000B91A00082D
:1027C000C43000085F000000E803000007000000BC
:1027D00000000000000000000000000005000100F3
:1027E0000100010001000000BC1A0008F02D0008E3
:1027F00060000000E8030000070000000000000087
:1028000000000000000000000300030002000500BB
:1028100003000000BD1A0008202E0008610000001F
:10282000E8030000070000000000000000000000B6
:102830000000000005000500010001000500000087
:10284000C01A0008502E000862000000E8030000D3
:102850000700000000000000000000000000000071
:10286000050007000100010007000000C51A00086C
:10287000802E000863000000E8030000070000004D
:10288000000000000000000000000000050005003E
:102890000100010005000000CC1A0008B02E00085D
:1028A00064000000E80300000700000000000000D2
:1028B000000000000000000005000700010001000A
:1028C00007000000D11A0008E02E00086500000093
:1028D000E803000007000000000000000000000006
:1028E00000000000050005000100010005000000D7
:1028F000D81A0008102F000866000000E803000046
:1029000007000000000000000000000000000000C0
:10291000050007000100010007000000DD1A0008A3
:10292000402F000867000000E803000007000000D7
:10293000000000000000000000000000050005008D
:102940000100010005000000E41A0008702F0008D3
:1029500068000000E803000007000000000000001D
:102960000000000000000000050007000100010059
:1029700007000000E91A0008AC2F000869000000F9
:10298000E803000007000000000000000000000055
:102990000000000003000700020001000700000023
:1029A000F01A0008DC2F00086A000000E8030000AD
:1029B0000700000000000000000000000000000010
:1029C000040007000100010007000000F71A0008DA
:1029D0000C3000086B000000E80300000700000056
:1029E00000000000000000000000000004000700DC
:1029F0000200010007000000FE1A00083C30000839
:102A00006C000000E8030000070000000000000068
:102A100000000000000000000300070002000100A9
:102A200007000000051B00086C3000086D00000066
:102A3000E8030000070000000000000000000000A4
:102A40000000000005000500010001000500000075
:102A50000C1B00089C3000086E000000E80300001A
:102A6000070000000000000000000000000000005F
:102A7000050005000100010005000000111B000811
:102A8000CC3000086F000000E803000007000000E1
:102A9000000000000000000000000000050005002C
:102AA0000100010005000000161B0008F82D0008B9
:102AB00070000000E80300000700000000000000B4
:102AC00000000000000000000500050001000100FA
:102AD000050000001B1B0008282E000871000000E4
:102AE000E8030000070000000000000000000000F4
:102AF00000000000050006000100010006000000C3
:102B0000201B0008582E000872000000E803000097
:102B100007000000000000000000000000000000AE
:102B2000050005000100010005000000261B00084B
:102B3000882E000873000000E80300000700000072
:102B4000000000000000000000000000050005007B
:102B500001000100050000002B1B0008B82E000832
:102B600074000000E80300000700000000000000FF
:102B70000000000000000000050007000100010047
:102B800007000000301B0008E82E00087500000058
:102B9000E803000007000000000000000000000043
:102BA0000000000005000600010001000600000012
:102BB000371B0008182F000876000000E80300000B
:102BC00007000000000000000000000000000000FE
:102BD0000500050001000100050000003D1B000884
:102BE000482F000877000000E803000007000000FD
:102BF00000000000000000000000000005000500CB
:102C00000100010005000000421B0008782F0008A9
:102C100078000000E803000007000000000000004A
:102C20000000000000000000050005000100010098
:102C300005000000471B0008B42F000879000000C1
:102C4000E803000007000000000000000000000092
:102C50000000000005000500010001000500000063
:102C60004C1B0008E42F00087A000000E803000075
:102C7000070000000000000000000000000000004D
:102C8000050005000100010005000000511B0008BF
:102C9000143000087B000000E8030000070000007B
:102CA000000000000000000000000000030007001A
:102CB0000200010007000000561B00084430000815
:102CC0007C000000E8030000070000000000000096
:102CD00000000000000000000100070003000100E8
:102CE000070000005D1B0008743000087D00000034
:102CF000E8030000070000000000000000000000E2
:102D000000000000030007000200010007000000AF
:102D1000641B0008A43000087E000000E8030000E7
:102D2000070000000000000000000000000000009C
:102D30000500030001000500030000006B1B0008F4
:102D4000B42D0008802F0008000000000800480093
:102D5000480007000800000000005F00701B00082A
:102D6000EC1C000834463630000000002D46726529
:102D700065547970652D48594A696E4B61694A2DD1
:102D80004D656469756D2D522D4E6F726D616C2DA0
:102D90002D32322D3136302D3130302D3130302D35
:102DA000502D3138322D49534F31303634362D3194
:102DB00000000000322E31003445313600000000A2
:102DC0003735344300000000353937440000000037
:102DD000303032300000000030303330000000006E
:102DE000303034300000000030303530000000005A
:102DF0003030363000000000303037300000000046
:102E0000303032310000000030303331000000003B
:102E10003030343100000000303035310000000027
:102E20003030363100000000303037310000000013
:102E30003030323200000000303033320000000009
:102E400030303432000000003030353200000000F5
:102E500030303632000000003030373200000000E1
:102E600030303233000000003030333300000000D7
:102E700030303433000000003030353300000000C3
:102E800030303633000000003030373300000000AF
:102E900030303234000000003030333400000000A5
:102EA0003030343400000000303035340000000091
:102EB000303036340000000030303734000000007D
:102EC0003030323500000000303033350000000073
:102ED000303034350000000030303535000000005F
:102EE000303036350000000030303735000000004B
:102EF0003030323600000000303033360000000041
:102F0000303034360000000030303536000000002C
:102F10003030363600000000303037360000000018
:102F2000303032370000000030303337000000000E
:102F300030303437000000003030353700000000FA
:102F400030303637000000003030373700000000E6
:102F500030303238000000003030333800000000DC
:102F600030303438000000003030353800000000C8
:102F700030303638000000003030373800000000B4
:102F80004D617472697820357838000030303239FC
:102F90000000000030303339000000003030343998
:102FA0000000000030303539000000003030363984
:102FB000000000003030373900000000303032416E
:102FC0000000000030303341000000003030344158
:102FD0000000000030303541000000003030364144
:102FE0000000000030303741000000003030324235
:102FF0000000000030303342000000003030344226
:103000000000000030303542000000003030364211
:103010000000000030303742000000003030324302
:1030200000000000303033430000000030303443F3
:1030300000000000303035430000000030303643DF
:1030400000000000303037430000000030303244D0
:1030500000000000303033440000000030303444C1
:1030600000000000303035440000000030303644AD
:10307000000000003030374400000000303032459E
:10308000000000003030334500000000303034458F
:10309000000000003030354500000000303036457B
:1030A000000000003030374500000000303032466C
:1030B000000000003030334600000000303034465D
:1030C0000000000030303546000000003030364649
:1030D00000000000F4300008000000202C04000074
:1030E00030050008103300082C0400203C200000AC
:1030F000881100080A34FF01BBFE070F22FCAA0357
:103100001032C0AA3F1F9C7FFFE02123E00F120F67
:1031100089103380E07B701F5D42037A0C6313F8E3
:103120001812807C9001813F1260120812B06A6010
:103130001015C188018812406A187213820E14801B
:1031400001705A045114FE0C0414C40ED05A0351D9
:1031500014FC10041A44B1115A835F342003604CEC
:103160001E8041101BF0406F2112305A206F1B80CF
:10317000028E19734A101042E1321F3B087F102A59
:10318000C22F1A7F044A04811A862F1B01FF104A9E
:10319000068114840E801A0F104B2002101A08DFCB
:1031A0001A7F104C03830F1012122403FFFF4B17DA
:1031B000E1101B100A2F22FE3CE0018FBF19AF2443
:1031C0003FFFFC12F04A8710293F42C0591012C03D
:1031D000490F4A18101C3140013E19513B20C710BD
:1031E00012201303F81407FDF04A2410200923C00D
:1031F00003F0F00FFBE04910680921C003E3FC1F56
:10320000F7E02012336F03C79E3FF7C05018081035
:103210008001C3FC7FEF6349101F118001E0F0FFC4
:10322000105A3010122016F003FFEF803A481014A5
:10323000FF1880163E0FFFDF805A61E012902B07C7
:10324000F01059E0330C7023FFBF3BC31F102B84D9
:10325000081012FE4B01821023863C1A01F13C0239
:10326000043F1013C20C156007FDF84B058C1013BA
:10327000E1011B0FFF9F3C0A087F1014F08480239C
:10328000FF1C3B1A100F55FFF042804B04211054D5
:10329000F820F04B90C31054FE18504AA1AF19917A
:1032A00042364B09429F36FFFF830B404B230C8F66
:1032B0001EFFFFC082A0924BE4107F196114605B77
:1032C000805C1620C00F14FFFC0C6ED5B4EE030317
:1032D0001013FE036D941DF01C4F194129F26AE092
:1032E0003F1941130780121E790F19FC8D1FFF80B3
:1032F000071033FFC049DD692119F3095301412D3E
:10330000010203040400091806070809020406085C
:04000005080000ED02
:00000001FF
